{
  "_format": "hh-sol-artifact-1",
  "contractName": "BuyMeACoffee",
  "sourceName": "contracts/BuyMeACoffee.sol",
  "abi": [
    {
      "inputs": [],
      "stateMutability": "nonpayable",
      "type": "constructor"
    },
    {
      "anonymous": false,
      "inputs": [
        {
          "indexed": true,
          "internalType": "address",
          "name": "from",
          "type": "address"
        },
        {
          "indexed": false,
          "internalType": "uint256",
          "name": "timestamp",
          "type": "uint256"
        },
        {
          "indexed": false,
          "internalType": "string",
          "name": "name",
          "type": "string"
        },
        {
          "indexed": false,
          "internalType": "string",
          "name": "message",
          "type": "string"
        }
      ],
      "name": "NewMemo",
      "type": "event"
    },
    {
      "inputs": [
        {
          "internalType": "string",
          "name": "_name",
          "type": "string"
        },
        {
          "internalType": "string",
          "name": "_message",
          "type": "string"
        }
      ],
      "name": "buyCoffee",
      "outputs": [],
      "stateMutability": "payable",
      "type": "function"
    },
    {
      "inputs": [],
      "name": "getMemos",
      "outputs": [
        {
          "components": [
            {
              "internalType": "address",
              "name": "from",
              "type": "address"
            },
            {
              "internalType": "uint256",
              "name": "timestamp",
              "type": "uint256"
            },
            {
              "internalType": "string",
              "name": "name",
              "type": "string"
            },
            {
              "internalType": "string",
              "name": "message",
              "type": "string"
            }
          ],
          "internalType": "struct BuyMeACoffee.Memo[]",
          "name": "",
          "type": "tuple[]"
        }
      ],
      "stateMutability": "view",
      "type": "function"
    },
    {
      "inputs": [
        {
          "internalType": "address payable",
          "name": "_address",
          "type": "address"
        }
      ],
      "name": "updateWithdrawalAddress",
      "outputs": [],
      "stateMutability": "nonpayable",
      "type": "function"
    },
    {
      "inputs": [],
      "name": "withdrawTips",
      "outputs": [],
      "stateMutability": "nonpayable",
      "type": "function"
    }
  ],
  "bytecode": "0x608060405234801561001057600080fd5b50336000806101000a81548173ffffffffffffffffffffffffffffffffffffffff021916908373ffffffffffffffffffffffffffffffffffffffff16021790555033600160006101000a81548173ffffffffffffffffffffffffffffffffffffffff021916908373ffffffffffffffffffffffffffffffffffffffff160217905550610bb9806100a16000396000f3fe60806040526004361061003f5760003560e01c8063204206e1146100445780633aaa74b2146100605780635e72fc5d14610077578063865c5172146100a0575b600080fd5b61005e6004803603810190610059919061067d565b6100cb565b005b34801561006c57600080fd5b50610075610253565b005b34801561008357600080fd5b5061009e60048036038101906100999190610654565b6102b5565b005b3480156100ac57600080fd5b506100b5610351565b6040516100c2919061089e565b60405180910390f35b6000341161010e576040517f08c379a0000000000000000000000000000000000000000000000000000000008152600401610105906108c0565b60405180910390fd5b600260405180608001604052803373ffffffffffffffffffffffffffffffffffffffff16815260200142815260200184815260200183815250908060018154018082558091505060019003906000526020600020906004020160009091909190915060008201518160000160006101000a81548173ffffffffffffffffffffffffffffffffffffffff021916908373ffffffffffffffffffffffffffffffffffffffff1602179055506020820151816001015560408201518160020190805190602001906101dd929190610534565b5060608201518160030190805190602001906101fa929190610534565b5050503373ffffffffffffffffffffffffffffffffffffffff167fc56140e05f516509ae28110e0f72e17558a7561630dad2647c3ae87d986e365c428484604051610247939291906108e0565b60405180910390a25050565b600160009054906101000a900473ffffffffffffffffffffffffffffffffffffffff1673ffffffffffffffffffffffffffffffffffffffff166108fc479081150290604051600060405180830381858888f193505050506102b357600080fd5b565b60008054906101000a900473ffffffffffffffffffffffffffffffffffffffff1673ffffffffffffffffffffffffffffffffffffffff163373ffffffffffffffffffffffffffffffffffffffff161461030d57600080fd5b80600160006101000a81548173ffffffffffffffffffffffffffffffffffffffff021916908373ffffffffffffffffffffffffffffffffffffffff16021790555050565b60606002805480602002602001604051908101604052809291908181526020016000905b8282101561052b57838290600052602060002090600402016040518060800160405290816000820160009054906101000a900473ffffffffffffffffffffffffffffffffffffffff1673ffffffffffffffffffffffffffffffffffffffff1673ffffffffffffffffffffffffffffffffffffffff1681526020016001820154815260200160028201805461040890610a71565b80601f016020809104026020016040519081016040528092919081815260200182805461043490610a71565b80156104815780601f1061045657610100808354040283529160200191610481565b820191906000526020600020905b81548152906001019060200180831161046457829003601f168201915b5050505050815260200160038201805461049a90610a71565b80601f01602080910402602001604051908101604052809291908181526020018280546104c690610a71565b80156105135780601f106104e857610100808354040283529160200191610513565b820191906000526020600020905b8154815290600101906020018083116104f657829003601f168201915b50505050508152505081526020019060010190610375565b50505050905090565b82805461054090610a71565b90600052602060002090601f01602090048101928261056257600085556105a9565b82601f1061057b57805160ff19168380011785556105a9565b828001600101855582156105a9579182015b828111156105a857825182559160200191906001019061058d565b5b5090506105b691906105ba565b5090565b5b808211156105d35760008160009055506001016105bb565b5090565b60006105ea6105e58461094a565b610925565b90508281526020810184848401111561060257600080fd5b61060d848285610a2f565b509392505050565b60008135905061062481610b6c565b92915050565b600082601f83011261063b57600080fd5b813561064b8482602086016105d7565b91505092915050565b60006020828403121561066657600080fd5b600061067484828501610615565b91505092915050565b6000806040838503121561069057600080fd5b600083013567ffffffffffffffff8111156106aa57600080fd5b6106b68582860161062a565b925050602083013567ffffffffffffffff8111156106d357600080fd5b6106df8582860161062a565b9150509250929050565b60006106f58383610816565b905092915050565b610706816109e1565b82525050565b60006107178261098b565b61072181856109ae565b9350836020820285016107338561097b565b8060005b8581101561076f578484038952815161075085826106e9565b945061075b836109a1565b925060208a01995050600181019050610737565b50829750879550505050505092915050565b600061078c82610996565b61079681856109bf565b93506107a6818560208601610a3e565b6107af81610b32565b840191505092915050565b60006107c582610996565b6107cf81856109d0565b93506107df818560208601610a3e565b6107e881610b32565b840191505092915050565b6000610800601a836109d0565b915061080b82610b43565b602082019050919050565b600060808301600083015161082e60008601826106fd565b5060208301516108416020860182610880565b50604083015184820360408601526108598282610781565b915050606083015184820360608601526108738282610781565b9150508091505092915050565b61088981610a25565b82525050565b61089881610a25565b82525050565b600060208201905081810360008301526108b8818461070c565b905092915050565b600060208201905081810360008301526108d9816107f3565b9050919050565b60006060820190506108f5600083018661088f565b818103602083015261090781856107ba565b9050818103604083015261091b81846107ba565b9050949350505050565b600061092f610940565b905061093b8282610aa3565b919050565b6000604051905090565b600067ffffffffffffffff82111561096557610964610b03565b5b61096e82610b32565b9050602081019050919050565b6000819050602082019050919050565b600081519050919050565b600081519050919050565b6000602082019050919050565b600082825260208201905092915050565b600082825260208201905092915050565b600082825260208201905092915050565b60006109ec82610a05565b9050919050565b60006109fe82610a05565b9050919050565b600073ffffffffffffffffffffffffffffffffffffffff82169050919050565b6000819050919050565b82818337600083830152505050565b60005b83811015610a5c578082015181840152602081019050610a41565b83811115610a6b576000848401525b50505050565b60006002820490506001821680610a8957607f821691505b60208210811415610a9d57610a9c610ad4565b5b50919050565b610aac82610b32565b810181811067ffffffffffffffff82111715610acb57610aca610b03565b5b80604052505050565b7f4e487b7100000000000000000000000000000000000000000000000000000000600052602260045260246000fd5b7f4e487b7100000000000000000000000000000000000000000000000000000000600052604160045260246000fd5b6000601f19601f8301169050919050565b7f63616e27742062757920636f6666656520666f72206672656521000000000000600082015250565b610b75816109f3565b8114610b8057600080fd5b5056fea2646970667358221220bacde873662e6d1470fe4859faf525118da430e79464fd12890fbe77d0d295ab64736f6c63430008040033",
  "linkReferences": {},
  "deployedLinkReferences": {}
}